{
  "contractName": "Faucet",
  "abi": [
    {
      "inputs": [],
      "name": "numOfFunders",
      "outputs": [
        {
          "internalType": "uint256",
          "name": "",
          "type": "uint256"
        }
      ],
      "stateMutability": "view",
      "type": "function",
      "constant": true
    },
    {
      "inputs": [],
      "name": "owner",
      "outputs": [
        {
          "internalType": "address",
          "name": "",
          "type": "address"
        }
      ],
      "stateMutability": "view",
      "type": "function",
      "constant": true
    },
    {
      "inputs": [],
      "name": "test3",
      "outputs": [
        {
          "internalType": "uint256",
          "name": "",
          "type": "uint256"
        }
      ],
      "stateMutability": "pure",
      "type": "function",
      "constant": true
    },
    {
      "stateMutability": "payable",
      "type": "receive",
      "payable": true
    },
    {
      "inputs": [],
      "name": "emitLog",
      "outputs": [
        {
          "internalType": "bytes32",
          "name": "",
          "type": "bytes32"
        }
      ],
      "stateMutability": "pure",
      "type": "function",
      "constant": true
    },
    {
      "inputs": [],
      "name": "addFunds",
      "outputs": [],
      "stateMutability": "payable",
      "type": "function",
      "payable": true
    },
    {
      "inputs": [],
      "name": "adminProtectedFunction",
      "outputs": [],
      "stateMutability": "nonpayable",
      "type": "function"
    },
    {
      "inputs": [],
      "name": "adminProtectedFunction2",
      "outputs": [],
      "stateMutability": "nonpayable",
      "type": "function"
    },
    {
      "inputs": [
        {
          "internalType": "uint256",
          "name": "amount",
          "type": "uint256"
        }
      ],
      "name": "withdraw",
      "outputs": [],
      "stateMutability": "nonpayable",
      "type": "function"
    },
    {
      "inputs": [],
      "name": "getFunders",
      "outputs": [
        {
          "internalType": "address[]",
          "name": "",
          "type": "address[]"
        }
      ],
      "stateMutability": "view",
      "type": "function",
      "constant": true
    },
    {
      "inputs": [
        {
          "internalType": "uint8",
          "name": "index",
          "type": "uint8"
        }
      ],
      "name": "getFunderAtIndex",
      "outputs": [
        {
          "internalType": "address",
          "name": "",
          "type": "address"
        }
      ],
      "stateMutability": "view",
      "type": "function",
      "constant": true
    }
  ],
  "bytecode": "0x608060405234801561001057600080fd5b50336000806101000a81548173ffffffffffffffffffffffffffffffffffffffff021916908373ffffffffffffffffffffffffffffffffffffffff160217905550610b2a806100606000396000f3fe6080604052600436106100955760003560e01c80638da5cb5b116100595780638da5cb5b14610160578063a26759cb1461018b578063af7f2c9b14610195578063ea63a044146101c0578063f42c13bf146101eb5761009c565b806301c8779d146100a15780630a8e8e01146100b85780630a93cf33146100e35780632e1a7d4d1461012057806353efee3a146101495761009c565b3661009c57005b600080fd5b3480156100ad57600080fd5b506100b6610216565b005b3480156100c457600080fd5b506100cd6102a6565b6040516100da919061069b565b60405180910390f35b3480156100ef57600080fd5b5061010a600480360381019061010591906106f4565b6102af565b6040516101179190610762565b60405180910390f35b34801561012c57600080fd5b50610147600480360381019061014291906107a9565b6102ef565b005b34801561015557600080fd5b5061015e610386565b005b34801561016c57600080fd5b50610175610416565b6040516101829190610762565b60405180910390f35b61019361043a565b005b3480156101a157600080fd5b506101aa61055a565b6040516101b7919061069b565b60405180910390f35b3480156101cc57600080fd5b506101d5610560565b6040516101e29190610894565b60405180910390f35b3480156101f757600080fd5b5061020061065a565b60405161020d91906108cf565b60405180910390f35b60008054906101000a900473ffffffffffffffffffffffffffffffffffffffff1673ffffffffffffffffffffffffffffffffffffffff163373ffffffffffffffffffffffffffffffffffffffff16146102a4576040517f08c379a000000000000000000000000000000000000000000000000000000000815260040161029b9061096d565b60405180910390fd5b565b60006064905090565b6000600360008360ff16815260200190815260200160002060009054906101000a900473ffffffffffffffffffffffffffffffffffffffff169050919050565b8067016345785d8a000081111561033b576040517f08c379a0000000000000000000000000000000000000000000000000000000008152600401610332906109ff565b60405180910390fd5b3373ffffffffffffffffffffffffffffffffffffffff166108fc839081150290604051600060405180830381858888f19350505050158015610381573d6000803e3d6000fd5b505050565b60008054906101000a900473ffffffffffffffffffffffffffffffffffffffff1673ffffffffffffffffffffffffffffffffffffffff163373ffffffffffffffffffffffffffffffffffffffff1614610414576040517f08c379a000000000000000000000000000000000000000000000000000000000815260040161040b9061096d565b60405180910390fd5b565b60008054906101000a900473ffffffffffffffffffffffffffffffffffffffff1681565b6000339050600260008273ffffffffffffffffffffffffffffffffffffffff1673ffffffffffffffffffffffffffffffffffffffff16815260200190815260200160002060009054906101000a900460ff16610557576000600160008154809291906104a590610a4e565b9190505590506001600260008473ffffffffffffffffffffffffffffffffffffffff1673ffffffffffffffffffffffffffffffffffffffff16815260200190815260200160002060006101000a81548160ff021916908315150217905550816003600083815260200190815260200160002060006101000a81548173ffffffffffffffffffffffffffffffffffffffff021916908373ffffffffffffffffffffffffffffffffffffffff160217905550505b50565b60015481565b6060600060015467ffffffffffffffff8111156105805761057f610a96565b5b6040519080825280602002602001820160405280156105ae5781602001602082028036833780820191505090505b50905060005b600154811015610652576003600082815260200190815260200160002060009054906101000a900473ffffffffffffffffffffffffffffffffffffffff1682828151811061060557610604610ac5565b5b602002602001019073ffffffffffffffffffffffffffffffffffffffff16908173ffffffffffffffffffffffffffffffffffffffff1681525050808061064a90610a4e565b9150506105b4565b508091505090565b60007f48656c6c6f20776f726c64000000000000000000000000000000000000000000905090565b6000819050919050565b61069581610682565b82525050565b60006020820190506106b0600083018461068c565b92915050565b600080fd5b600060ff82169050919050565b6106d1816106bb565b81146106dc57600080fd5b50565b6000813590506106ee816106c8565b92915050565b60006020828403121561070a576107096106b6565b5b6000610718848285016106df565b91505092915050565b600073ffffffffffffffffffffffffffffffffffffffff82169050919050565b600061074c82610721565b9050919050565b61075c81610741565b82525050565b60006020820190506107776000830184610753565b92915050565b61078681610682565b811461079157600080fd5b50565b6000813590506107a38161077d565b92915050565b6000602082840312156107bf576107be6106b6565b5b60006107cd84828501610794565b91505092915050565b600081519050919050565b600082825260208201905092915050565b6000819050602082019050919050565b61080b81610741565b82525050565b600061081d8383610802565b60208301905092915050565b6000602082019050919050565b6000610841826107d6565b61084b81856107e1565b9350610856836107f2565b8060005b8381101561088757815161086e8882610811565b975061087983610829565b92505060018101905061085a565b5085935050505092915050565b600060208201905081810360008301526108ae8184610836565b905092915050565b6000819050919050565b6108c9816108b6565b82525050565b60006020820190506108e460008301846108c0565b92915050565b600082825260208201905092915050565b7f4f6e6c79206f776e65722063616e2063616c6c20746869732066756e6374696f60008201527f6e00000000000000000000000000000000000000000000000000000000000000602082015250565b60006109576021836108ea565b9150610962826108fb565b604082019050919050565b600060208201905081810360008301526109868161094a565b9050919050565b7f43616e6e6f74207769746864726177206d6f7265207468616e20302e3120657460008201527f6865720000000000000000000000000000000000000000000000000000000000602082015250565b60006109e96023836108ea565b91506109f48261098d565b604082019050919050565b60006020820190508181036000830152610a18816109dc565b9050919050565b7f4e487b7100000000000000000000000000000000000000000000000000000000600052601160045260246000fd5b6000610a5982610682565b91507fffffffffffffffffffffffffffffffffffffffffffffffffffffffffffffffff8203610a8b57610a8a610a1f565b5b600182019050919050565b7f4e487b7100000000000000000000000000000000000000000000000000000000600052604160045260246000fd5b7f4e487b7100000000000000000000000000000000000000000000000000000000600052603260045260246000fdfea2646970667358221220eaec8742a409560c392c210c9a4c5abdd887a890d22e9c91518809c01634612b64736f6c634300080f0033",
  "immutableReferences": {},
  "source": "// SPDX-License-Identifier: MIT\npragma solidity >=0.4.22 <0.9.0;\nimport \"./Owned.sol\";\nimport \"./Logger.sol\";\nimport \"./IFaucet.sol\";\n\ncontract Faucet is Owned, Logger, IFaucet {\n    uint public numOfFunders;\n\n    mapping(address => bool) private funders;\n    mapping(uint => address) private lutFunders;\n\n    modifier limitWithdraw(uint amount) {\n        require(\n            amount <= 100000000000000000,\n            \"Cannot withdraw more than 0.1 ether\"\n        );\n\n        _;\n    }\n\n    receive() external payable {}\n\n    function emitLog() public override pure returns(bytes32) {\n        return \"Hello world\";\n    }\n\n    function addFunds() external payable {\n        address funder = msg.sender;\n\n        if (!funders[funder]) {\n            uint index = numOfFunders++;\n            funders[funder] = true;\n            lutFunders[index] = funder;\n        } \n    }\n\n    function adminProtectedFunction() external ownerGuard {\n        // some managing stuff that only admin should have access to\n    }\n\n\n    function adminProtectedFunction2() external ownerGuard {\n        // some managing stuff that only admin should have access to\n    }\n\n    function withdraw(uint amount) external limitWithdraw(amount) {\n        payable(msg.sender).transfer(amount);\n    }\n\n    function getFunders () external view returns (address[] memory) {\n        address[] memory _funders = new address[](numOfFunders);\n\n        for (uint i = 0; i < numOfFunders; i++) {\n            _funders[i] = lutFunders[i];\n        }\n\n        return _funders;\n    }\n\n    function getFunderAtIndex(uint8 index) external view returns(address) {\n        return lutFunders[index];\n    }\n\n}\n\n\n// const i = await Faucet.deployed()\n\n// i.addFunds({ value: \"2000000000000000000\", from: accounts[0] })\n// i.addFunds({ value: \"2000000000000000000\", from: accounts[1] })\n\n// i.adminProtectedFunction({ from: accounts[0] })\n\n// i.withdraw(\"100000000000000001\", { from: accounts[0] })\n\n// i.getFunderAtIndex(0)\n// i.getFunders()\n",
  "sourcePath": "/Users/serhii.kucherenko/Documents/work/learning/blockchain/faucet/contracts/FaucetContract.sol",
  "compiler": {
    "name": "solc",
    "version": "0.8.15+commit.e14f2714.Emscripten.clang"
  },
  "schemaVersion": "3.4.8",
  "updatedAt": "2022-08-06T11:37:36.911Z",
  "networkType": "ethereum",
  "devdoc": {
    "kind": "dev",
    "methods": {},
    "version": 1
  },
  "userdoc": {
    "kind": "user",
    "methods": {},
    "version": 1
  }
}